:100000000C944F010C9480010C9480010C9480019D
:100010000C9480010C9480010C9480010C9480015C
:100020000C9480010C946D060C946D060C946D0676
:100030000C9480010C94E5070C9480010C948001D1
:100040000C9480010C945F0A0C9480010C94800144
:100050000C9480010C9480010C9480010C949B07FB
:100060000C9480010C9454090C942A090C9480017E
:100070000C9480010C9480010C9480010C948001FC
:100080000C9480010C9480010C9480010C948001EC
:100090000C9480010C9480010C9480010C947706E0
:1000A0000C9480010C9480010C9480010C948001CC
:1000B0000C9480010C9480010C9480010C947E09B6
:1000C0000C9480010C9480010C9480010C94000924
:1000D0000C94D6080C9480010C94AC080C94820803
:1000E0000C9480010C94AA010C94CE040C9474021C
:1000F0000C948F020C943C050C94290F0C94AC01C9
:100100000C947C020C94D5010C9402020C94BB015B
:100110000C9455020C9494020C9478020C94860270
:100120000C9464020C948A020C94CE010C94790411
:100130000C9461020C94E2040C9489050C946A02FC
:100140000C9482020C94EC050C9490020C94070B16
:100150000C9459020C94AB010C945D020C94BF04F6
:100160000C94EB050C944F020C94A9010C9404061A
:100170000C946E020C94F004000020002300260072
:1001800029002C002F0032000001000003010601AD
:1001900009010200002100240027002A002D003060
:1001A00000330001010000040107010A01000022E0
:1001B00000250028002B002E003100340002010031
:1001C00000050108010B01050505050705080808DC
:1001D00008020202020A0A080804040404010101D8
:1001E00001010101010303030303030303040707E0
:1001F000070C0C0C0C0C0C0C0C020202020606067E
:1002000006060606060B0B0B0B0B0B0B0B01021065
:100210002020080810204010204080020102010820
:1002200004020101020408102040808040201008D0
:100230000402018004020180402010080402010829
:100240000402010102040810204080010204081089
:1002500020408000000A0B02090C0D0E0807030461
:10026000010000000000000000000000000000008D
:10027000000000000000000000000000000000126C
:10028000111000000000000000000000000000004D
:1002900000000000000000000000070B290F1124DF
:1002A0001FBECFEFD1E2DEBFCDBF00E00CBF12E03A
:1002B000A0E0B2E0ECEDF2E200E00BBF02C007907C
:1002C0000D92AC34B107D9F727E0ACE4B2E001C03D
:1002D0001D92A632B207E1F711E0CEE4D1E000E0D2
:1002E00006C021970109802FFE010E943E0FCD34E8
:1002F000D10780E00807A9F70E94EF0C0C945C116D
:100300000C9400002091BA02260F3327331F2132AC
:100310003105ECF420910703FC0190E080E02430EB
:1003200069F082E00895A091BA022191AC0148568B
:100330005D4FA40FB52FB11D2C930196861798F32E
:100340008091BA02680F6093BA0280E0089581E05C
:100350000895089508950895E09196028091950278
:10036000E81730F4F0E0EB58FD4F808190E00895FD
:100370008FEF9FEF089590919602809195022FEF55
:100380003FEF981748F4E92FF0E0EB58FD4F20813C
:1003900030E09F5F90939602C90108958091950285
:1003A00090919602891B990B0895CF92DF92EF925C
:1003B000FF920F931F93CF93DF937C01CB018A01B0
:1003C00020910D03222389F0EB016B01C40ED51E91
:1003D000CC15DD0569F06991D701ED91FC91019093
:1003E000F081E02DC7011995F3CF642F0E9482019F
:1003F000C801DF91CF911F910F91FF90EF90DF9097
:10040000CF900895CF93DF931F92CDB7DEB7698366
:1004100020910D032223F9F020913003203258F06F
:1004200021E030E0FC013383228390E080E00F90F4
:10043000DF91CF91089580910E03E82FF0E0E15F06
:10044000FC4F998190838F5F80930E0380933003DC
:1004500081E090E0ECCF61E0CE0101960E94820144
:10046000F7CF8150823108F05AC0E82FF0E088279A
:10047000E35CFD4F8F4F0C943E0F5D0261024F0213
:10048000550259028F0264026A026E0274027802F7
:100490007C02820286028F028A029002940280917C
:1004A00080008F77809380000895809180008F7DF9
:1004B000F9CF80918000877FF5CF84B58F7784BD99
:1004C000089584B58F7DFBCF8091B0008F778093A6
:1004D000B00008958091B0008F7DF9CF8091900099
:1004E0008F77809390000895809190008F7DF9CF51
:1004F00080919000877FF5CF8091A0008F778093C7
:10050000A00008958091A0008F7DF9CF8091A00078
:10051000877FF5CF809120018F7780932001089508
:10052000809120018F7DF9CF80912001877FF5CFC9
:100530001F93CF93DF93282F30E0F901ED5AFD4F41
:100540008491F901E35FFD4FD491F901E953FE4F26
:10055000C491CC23A9F0162F81110E943102EC2FF7
:10056000F0E0EE0FFF1FE355FE4FA591B4918FB75A
:10057000F894EC91111108C0D095DE23DC938FBF65
:10058000DF91CF911F910895DE2BF8CF10920703D2
:1005900081E0809306031092E10261E084E10E9411
:1005A000980261E085E10E949802E9EBF0E0808129
:1005B0008E7F808380818D7F808388E48093B800E4
:1005C00085E48093BC000895CF93DF9391E09093EE
:1005D00097028823B9F0C091B800D091BA008091F9
:1005E000BC008A7B8093BC0060E084E10E9498029A
:1005F00060E085E10E9498020E94C602D093BA0092
:10060000C093B800DF91CF910895CF93DF9390E02E
:10061000FC01E35FFD4F249189539E4FFC018491BF
:100620008823D1F090E0880F991FFC01ED56FE4F12
:10063000A591B491FC01E355FE4FC591D491611190
:100640000EC09FB7F8948C91E22FE0958E238C9387
:100650002881E223E8839FBFDF91CF9108958FB770
:10066000F894EC91E22BEC938FBFF6CF3FB7F89460
:100670008091710290917202A0917302B091740204
:1006800026B5A89B05C02F3F19F00196A11DB11DED
:100690003FBFBA2FA92F982F8827BC01CD01620F29
:1006A000711D811D911D42E0660F771F881F991FE4
:1006B0004A95D1F70895CF92DF92EF92FF920F9370
:1006C0001F93CF93DF93D091300381E0D13208F0B4
:1006D0009CC0C0912F030E9436036B017C01809166
:1006E000070381116CC082E08093070381E080934F
:1006F00006038FEF8093050310920403D093030346
:10070000AFE0B3E0E3EEF2E080E0D8138DC01092EA
:10071000E2028091E202CC0FC82BC093E2028091EA
:10072000E102813009F084C01092E1020E94360398
:100730006B017C018091E2028093BB0080910903F0
:1007400090910A03A0910B03B0910C03892B8A2B83
:100750008B2BA1F00E9436030091090310910A032C
:1007600020910B0330910C036C197D098E099F09B0
:10077000061717072807390708F442C08091BC0004
:1007800083FDD8CF85EC8093BC000E9436036B01BB
:100790007C0180910703823009F44CC080910503ED
:1007A0008F3F09F469C080910503803209F466C067
:1007B00080910503803309F463C084E026C08091F2
:1007C000090390910A03A0910B03B0910C03892BAC
:1007D0008A2B8B2B09F483CF0E94360300910903E7
:1007E00010910A0320910B0330910C036C197D09C1
:1007F0008E099F09061717072807390708F06FCFDA
:10080000809108030E94E40285E010920E0310928A
:10081000300310920D03DF91CF911F910F91FF9044
:10082000EF90DF90CF9008959D9191938F5F6DCF62
:1008300085EEA9CF8091090390910A03A0910B0343
:10084000B0910C03892B8A2B8B2B09F4A2CF0E9429
:1008500036030091090310910A0320910B03309194
:100860000C036C197D098E099F09061717072807C5
:10087000390708F08ECFC4CF80E0C7CF82E0C5CF64
:1008800083E0C3CF0F931F93CF93DF93162F072FD0
:10089000CBEED6E0AA85BB859C8521E020930D0395
:1008A00090932F0310920E0310923003ED91FC9160
:1008B00011970190F081E02D682FCD0119958A855F
:1008C0009B85DC01ED91FC910190F081E02D602F82
:1008D00019958A859B85DC01ED91FC910190F08151
:1008E000E02D612F1995DF91CF911F910F910C94FD
:1008F0005B03AF92BF92CF92DF92EF92FF920F9382
:100900001F93CF93DF936C017B018B01040F151FA5
:10091000EB015E01AE18BF08C017D10759F069910D
:10092000D601ED91FC910190F081E02DC601199561
:10093000892B79F7C501DF91CF911F910F91FF901E
:10094000EF90DF90CF90BF90AF900895FC01A08909
:10095000B1898C91A689B78982FD0FC09C91818D48
:100960008F5F8F73228D821749F0A18DAE0FBF2F3D
:10097000B11D5D969C93818F08958C910895FC0123
:10098000538D448D252F30E0842F90E0821B930BF4
:10099000541710F0CF96089501970895FC01918D9A
:1009A000828D981761F0A28DAE0FBF2FB11D5D969D
:1009B0008C91928D9F5F9F73928F90E008958FEF3F
:1009C0009FEF0895FC01918D828D981731F0828DF3
:1009D000E80FF11D858D90E008958FEF9FEF08954A
:1009E000FC01918D228D892F90E0805C9F4F821BAE
:1009F00091098F73992708958DE393E00E94F00485
:100A000021E0892B09F420E0822F08958AED93E0FC
:100A10000E94F00421E0892B09F420E0822F089540
:100A200087E794E00E94F00421E0892B09F420E09C
:100A3000822F0895FC01A48DA80FB92FB11DA35AD0
:100A4000BF4F2C91848D90E001968F739927848FEE
:100A5000A689B7892C93A089B1898C918370806411
:100A60008C93938D848D981306C00288F389E02DB2
:100A700080818F7D80830895EF92FF920F931F9363
:100A8000CF93DF93EC0181E0888F9B8D8C8D981341
:100A90001AC0E889F989808185FF15C09FB7F8944D
:100AA000EE89FF896083E889F98980818370806499
:100AB00080839FBF81E090E0DF91CF911F910F91E4
:100AC000FF90EF900895F62E0B8D10E00F5F1F4FF3
:100AD0000F731127E02E8C8D8E110CC00FB607FC02
:100AE000FACFE889F989808185FFF5CFCE010E9490
:100AF0001A05F1CFEB8DEC0FFD2FF11DE35AFF4FDF
:100B0000F0829FB7F8940B8FEA89FB89808180621D
:100B1000CFCFCF93DF93EC01888D8823B9F0AA89DA
:100B2000BB89E889F9898C9185FD03C0808186FDA8
:100B30000DC00FB607FCF7CF8C9185FFF2CF8081F7
:100B400085FFEDCFCE010E941A05E9CFDF91CF914D
:100B50000895F0E0E0E0199480E090E0892B29F01E
:100B60000E94100581110E94000080E090E0892B16
:100B700049F080E090E0892B29F00E94000081116B
:100B80000E9400000E94060581110E94A90580E0D4
:100B900090E0892B29F00E94FC0481110C94000044
:100BA00008958EBD00000DB407FEFDCF8EB50895EB
:100BB000FC01248131E030930D0320932F03109228
:100BC0000E03109230038485682B81E393E00E942A
:100BD00002020C945B03089590E080E008950F9367
:100BE0001F93CF938C01C62F64600E94D8056C2F91
:100BF0006B7FC8010E94D80583EC90E00197F1F764
:100C0000CF911F910F9108950F931F93CF93DF936F
:100C10008C01C62FD62FD07FD1606D2F0E94D805B2
:100C20006D2FC8010E94EF0580E1C89FE0011124EB
:100C3000C1606C2FC8010E94D8056C2FC8010E94AA
:100C4000EF0581E090E0DF91CF911F910F91089522
:100C5000FC0101900020E9F73197AF01481B590BC7
:100C6000BC0187E794E00C94790485ED8093BC0087
:100C70008091090390910A03A0910B03B0910C039A
:100C80000796A11DB11D23E0B695A7959795879569
:100C90002A95D1F72091BC0024FD03C010920703D0
:100CA00008954091090350910A0360910B037091DC
:100CB0000C03452B462B472B69F30097A105B10583
:100CC00041F025E32A95F1F700000197A109B10948
:100CD000E1CF809108030C94E4021F920F920FB6AB
:100CE0000F9211240F900FBE0F901F9018951F9216
:100CF0000F920FB60F9211240BB60F922F933F93C2
:100D00004F935F936F937F938F939F93AF93BF9313
:100D1000EF93FF938091B900887F803609F44DC02E
:100D200008F040C0883209F4A9C028F5803109F4E0
:100D30009DC0C8F4882309F4FBC0883009F496C02C
:100D4000FF91EF91BF91AF919F918F917F916F91A3
:100D50005F914F913F912F910F900BBE0F900FBE5F
:100D60000F901F901895883109F488C0803241F7A0
:100D70008093050314C0803409F49DC040F480338F
:100D8000B9F38833E9F68093050385ECB0C080356C
:100D900009F485C0883509F496C0883489F60E9424
:100DA0003506CECF883909F48CC038F5883729F05C
:100DB00050F4883611F0803719F683E080930703EA
:100DC0001092DE0257C0883809F47BC0803919F0D0
:100DD000803809F0B5CF8091DE02803208F071C012
:100DE000E091DE0281E08E0F8093DE028091BB00F5
:100DF000F0E0E254FD4F80833DC0803B39F0E0F4E9
:100E0000803A09F479C0883A09F09ACF84E0809357
:100E100007031092BB021092BA02E091B802F0915F
:100E2000B90219958091BA0281110FC081E08093B7
:100E3000BA021092980209C0803C09F4A6CF883CFF
:100E400009F4A3CF883B09F07BCFE091BB0281E09E
:100E50008E0F8093BB02F0E0E856FD4F80818093B7
:100E6000BB009091BB028091BA0229C08091E2023E
:100E70008093BB0085EC8093BC0062CF909104030B
:100E800080910303981758F5E091040381E08E0FD9
:100E900080930403F0E0ED51FD4F8081E9CFE091B4
:100EA000040381E08E0F809304038091BB00F0E087
:100EB000ED51FD4F808390910403809103039817B7
:100EC000C8F285E8D8CFE091040381E08E0F8093CB
:100ED00004038091BB00F0E0ED51FD4F80838091D1
:100EE000060381115CCF81E08093E10284EA809364
:100EF000BC001092070324CF85EC8093BC001092B5
:100F000007038091DE02803230F4E091DE02F0E0EF
:100F1000E254FD4F10826091DE0270E0E091BC026D
:100F2000F091BD028EEB92E019951092DE0208CF8F
:100F30001092050334CF1F920F920FB60F92112417
:100F40002F933F938F939F93AF93BF9380916D02A5
:100F500090916E02A0916F02B091700230916C027C
:100F600023E0230F2D3758F50196A11DB11D2093C5
:100F70006C0280936D0290936E02A0936F02B09307
:100F800070028091710290917202A0917302B091EF
:100F900074020196A11DB11D80937102909372029B
:100FA000A0937302B0937402BF91AF919F918F9100
:100FB0003F912F910F900FBE0F901F90189526E82C
:100FC000230F0296A11DB11DD2CF1F920F920FB613
:100FD0000F9211240BB60F922F933F934F935F9371
:100FE0006F937F938F939F93AF93BF93EF93FF93F1
:100FF0008091670290916802A0916902B0916A02A3
:10100000892B8A2B8B2BD1F1909166028091000065
:101010008927809300008091670290916802A091D7
:101020006902B0916A02181619061A061B069CF48A
:101030008091670290916802A0916902B0916A0262
:101040000197A109B1098093670290936802A09368
:101050006902B0936A02FF91EF91BF91AF919F91A6
:101060008F917F916F915F914F913F912F910F9051
:101070000BBE0F900FBE0F901F901895809100022D
:10108000E2E9F1E0E4919FEF90930002E230E9F0B1
:1010900040F4EE2389F0E13091F060E00E94980284
:1010A000DACFE43049F110F1E530B9F790917300EF
:1010B0009D7F90937300F1CF10926E00EECF9091D0
:1010C0006F009D7F90936F00E8CF909170009D7F9F
:1010D0009093700091E09093B0009091B100987F50
:1010E00094609093B1001092B300D7CF90917100AB
:1010F0009D7F90937100D1CF909172009D7F9093CE
:101100007200CBCF1F920F920FB60F9211240BB625
:101110000F922F933F934F935F936F937F938F9390
:101120009F93AF93BF93EF93FF938DE393E00E9460
:101130001A05FF91EF91BF91AF919F918F917F9190
:101140006F915F914F913F912F910F900BBE0F9038
:101150000FBE0F901F9018951F920F920FB60F920F
:1011600011240BB60F922F933F934F935F936F937E
:101170007F938F939F93AF93BF93EF93FF938DE3F1
:1011800093E00E94A604FF91EF91BF91AF919F91D0
:101190008F917F916F915F914F913F912F910F9020
:1011A0000BBE0F900FBE0F901F9018951F920F92BD
:1011B0000FB60F9211240BB60F922F933F934F93BC
:1011C0005F936F937F938F939F93AF93BF93EF93AF
:1011D000FF938AED93E00E941A05FF91EF91BF9172
:1011E000AF919F918F917F916F915F914F913F91BF
:1011F0002F910F900BBE0F900FBE0F901F90189560
:101200001F920F920FB60F9211240BB60F922F93CD
:101210003F934F935F936F937F938F939F93AF937E
:10122000BF93EF93FF938AED93E00E94A604FF9192
:10123000EF91BF91AF919F918F917F916F915F914E
:101240004F913F912F910F900BBE0F900FBE0F90BB
:101250001F9018951F920F920FB60F9211240BB684
:101260000F922F933F934F935F936F937F938F933F
:101270009F93AF93BF93EF93FF9387E794E00E9410
:101280001A05FF91EF91BF91AF919F918F917F913F
:101290006F915F914F913F912F910F900BBE0F90E7
:1012A0000FBE0F901F9018951F920F920FB60F92BE
:1012B00011240BB60F922F933F934F935F936F932D
:1012C0007F938F939F93AF93BF93EF93FF9387E7A2
:1012D00094E00E94A604FF91EF91BF91AF919F917E
:1012E0008F917F916F915F914F913F912F910F90CF
:1012F0000BBE0F900FBE0F901F9018951F920F926C
:101300000FB60F9211240BB60F922F933F934F936A
:101310005F936F937F938F939F93AF93BF93CF937D
:10132000DF93EF93FF932091150530E0F901ED5A1B
:10133000FD4F8491F901E35FFD4FD491F901E95329
:10134000FE4FC491CC2379F081110E943102EC2F21
:10135000F0E0EE0FFF1FE858FE4FA591B491EC911D
:10136000ED2381E009F480E02091190530911A0500
:101370002F5F3F4F30931A05209319059091180560
:10138000953618F096E090931405909114059430DA
:1013900009F466C0B8F49230F1F0933009F444C017
:1013A00090911705992309F46BC081117EC080913B
:1013B0001605882309F463C08091160561E00E9438
:1013C00098025EC0953009F457C0963049F791E015
:1013D0009093E5054FC08111E3CF2091190530911D
:1013E0001A052436310528F410921A0510921905B1
:1013F000D7CF1092E50510921805E091180591E0FD
:101400009E0F90931805F0E02091190530911A0570
:10141000EE0FFF1FEC5EFA4F3087278310921A05FC
:101420001092190593E019C0813009F0B9CFE0910D
:10143000180591E09E0F90931805F0E02091190592
:1014400030911A05EE0FFF1FEC5EFA4F30872783AD
:1014500010921A051092190594E090931405A0CFEC
:10146000882359F22091190530911A052536310546
:1014700008F496CF95E0F1CF811192CFB5CF2F9A96
:10148000FF91EF91DF91CF91BF91AF919F918F919C
:101490007F916F915F914F913F912F910F900BBE74
:1014A0000F900FBE0F901F901895809116058823FE
:1014B00021F08091160560E082CF2F98E1CF1F9236
:1014C0000F920FB60F9211240BB60F922F933F93EA
:1014D0004F935F936F937F938F939F93AF93BF933C
:1014E000CF93DF93EF93FF9380916502C091220623
:1014F000D0E087FF23C01092850010928400809175
:1015000065028F5F8093650280916502082E000C52
:10151000990B8C179D0724F4809165028C3074F12F
:10152000809184009091850084349C4908F465C0C2
:101530008091840090918500049661C0809165023D
:10154000082E000C990B8C179D07CCF63091650284
:1015500025E03203F0011124EA51FA4F808186FF21
:10156000CECF309165023203F0011124EA51FA4FD7
:10157000808160E08F730E949802C1CF80918400C7
:10158000909185003091650225E03203F00111242D
:10159000EA51FA4F41815281840F951F909389003F
:1015A00080938800309165023203F0011124EA51E2
:1015B000FA4F808186FF0CC0309165023203F00142
:1015C0001124EA51FA4F808161E08F730E949802E2
:1015D000FF91EF91DF91CF91BF91AF919F918F914B
:1015E0007F916F915F914F913F912F910F900BBE23
:1015F0000F900FBE0F901F90189580E49CE9909378
:101600008900809388008FEF80936502E1CF10926C
:1016100034031092330388EE93E0A0E0B0E08093AF
:10162000350390933603A0933703B093380323E137
:1016300032E0309332032093310310924003109232
:101640003F038093410390934203A0934303B093DD
:10165000440325E232E030933E0320933D0345E30B
:1016600051E050934A034093490344E351E05093BF
:101670004C0340934B0340E351E050934E0340939F
:101680004D0341E351E05093500340934F0342E335
:1016900051E0509352034093510346E351E050937D
:1016A0005403409353031092560310925703109221
:1016B0005803109259031092DD031092DC038093BB
:1016C000DE039093DF03A093E003B093E103309334
:1016D000DB032093DA0345ED50E05093E70340939A
:1016E000E60344ED50E05093E9034093E80340EDF6
:1016F00050E05093EB034093EA0341ED50E05093E8
:10170000ED034093EC0342ED50E05093EF03409320
:10171000EE0346ED50E05093F1034093F003109236
:10172000F3031092F4031092F5031092F603109253
:101730007A041092790480937B0490937C04A093A4
:101740007D04B0937E04309378042093770485EC75
:1017500090E0909384048093830484EC90E09093D1
:1017600086048093850480EC90E0909388048093B5
:10177000870481EC90E090938A048093890482EC42
:1017800090E090938C0480938B0486EC90E090938F
:101790008E0480938D041092900410929104109204
:1017A0009204109293048091070290910802A091F4
:1017B0000902B0910A0280930C0790930D07A09341
:1017C0000E07B0930F0780910B0290910C02A0912D
:1017D0000D02B0910E028093100790931107A09311
:1017E0001207B093130784E08093140787E0809377
:1017F00015071092160784EB8093170786E18093F4
:10180000180788E18093190787E180931A0789E117
:1018100080931B07E0912206EC3008F4A9C08FEFFB
:1018200080931C07E0912206EC3008F4B2C08FEFE1
:1018300080931D078CE08093EB0684E28093EC0696
:1018400086E08093ED0685E08093EE068FE180933D
:10185000EF068EE18093F00683E28093F10682E248
:101860008093F20685E48093F30684E48093F40683
:1018700080E48093F7061092FC061092FD06109209
:10188000FE061092FF0610920007109201071092B8
:10189000020710920307EDE2F6E08FEF9FEFDC0105
:1018A0001282138214821582168217821086118684
:1018B00083879487A587B6878787908BA18BB28B08
:1018C000128611821082739626E0EB3EF20741F7F2
:1018D0008DE090E00E94460FFC011382128287E3A4
:1018E00092E091838083118687E2848384E18287FA
:1018F00084E083871486F0932A06E09329061092E9
:101900002B0610922C0685E2809315051092170580
:101910001092240610922306109226061092250695
:10192000109228061092270661E070E090E080E0B7
:101930000E946B100097F1F1909324068093230688
:10194000109226061092250620912706309128062F
:10195000232B11F4FC011082109228061092270606
:101960006BE472E080912306909124060C9455114B
:1019700081E08E0F80932206E0931C0725E0E29F12
:10198000F0011124EA51FA4F88EB9BE092838183A6
:1019900049CF81E08E0F80932206E0931D0785E0FA
:1019A000E89FF0011124EA51FA4F88EB9BE0928303
:1019B000818340CF8091230690912406009711F0F7
:1019C0000E94E20F1092240610922306109228061D
:1019D00010922706109226061092250608957894F4
:1019E00084B5826084BD84B5816084BD85B5826024
:1019F00085BD85B5816085BD80916E0081608093D5
:101A00006E0010928100809181008260809381003D
:101A1000809181008160809381008091800081604D
:101A2000809380008091B10084608093B1008091A8
:101A3000B00081608093B0008091910082608093BB
:101A4000910080919100816080939100809190003D
:101A50008160809390008091A10082608093A100BA
:101A60008091A10081608093A1008091A00081609D
:101A70008093A00080912101826080932101809158
:101A800021018160809321018091200181608093F8
:101A9000200180917A00846080937A0080917A009E
:101AA000826080937A0080917A00816080937A00CE
:101AB00080917A00806880937A001092C100E09152
:101AC0008704F091880482E08083E0918304F091A0
:101AD00084041082E0918504F09186048FEC808369
:101AE00010928F04E0918B04F0918C0486E0808347
:101AF000E0918904F0918A04808180618083E09183
:101B00008904F0918A04808188608083E09189044F
:101B1000F0918A04808180688083E0918904F0914B
:101B20008A0480818F7D808361E08091EC060E9431
:101B3000050360E08091EC060E94980260E08091CD
:101B4000EB060E94050381E393E09093F6068093F1
:101B5000F506109296021092950210920E031092C2
:101B600030030E94C60289EA91E09093B902809303
:101B7000B8028AEA91E09093BD028093BC0280E0B3
:101B800090E1A0E0B0E08093F8069093F906A0936E
:101B9000FA06B093FB068AE090E0A0E0B0E0809304
:101BA000FC069093FD06A093FE06B093FF0680E02E
:101BB00090E0A0E0B0E48093000790930107A09329
:101BC0000207B093030760E070E185E00E944204E1
:101BD0006FE979E380E00E9442040DEE16E0CBEE5F
:101BE000D6E04CEFA42E41E0B42E52E4852E52E014
:101BF000952E6BECE62E67E0F62E7BE8C72EDD24F3
:101C0000D394F801928181918F01898F9A8F61E03D
:101C10000E94050361E08A8D0E940503F801958109
:101C200083818D8F9E8F61E00E94050360E08E8D21
:101C30000E94050361E08D8D0E9498027FB6F894A2
:101C400080916B02811125C0F5018491F40194917A
:101C5000E82FF0E0EE0FFF1FED56FE4FA591B49177
:101C60008C91982321F461E085E30E94980261E061
:101C700085E30E9405038CB580618CBD8CB58064C2
:101C80008CBD61E084E30E94050361E083E30E9470
:101C9000050380916B028F5F80936B027FBEC7014B
:101CA0000197F1F760E08D8D0E94980288E80E940C
:101CB000D10583E00E94D10561E08D8D0E949802DC
:101CC000C7010197F1F760E08D8D0E94980288E9C5
:101CD0000E94D10580E00E94D10580E00E94D105DC
:101CE00080E00E94D10580E00E94D10561E08D8DE9
:101CF0000E949802C6010197F1F760E08D8D0E9465
:101D0000980280EE0E94D10561E08D8D0E949802BC
:101D10002296F6E0CF3EDF0709F073CF00E117E02F
:101D2000CCE0D7E060E0F80181918F010E940503CB
:101D3000F7E004311F07B1F70CE017E085E0F82E5B
:101D40009CE0D92E22E0E22E88898C3008F043C036
:101D5000C88461E08C2D0E9405038889F89EF001FB
:101D60001124EA51FA4F2C2D2F739081907C922BE5
:101D70009083138214826D2D0E94320F8D9DA001DD
:101D8000112430E020E0BA01620F731FF69EF001CB
:101D9000F79EF00D1124EA51FA4F908196FD12C082
:101DA0002F5F3F4F2C30310571F781110BC010921E
:101DB0008000E09281001092850010928400E6BAC3
:101DC000E0926F00E889FE9EF0011124EA51FA4F7B
:101DD0008081806480839E858C85F801828B938BC3
:101DE00060E00E94050361E0F80183890E94050319
:101DF00060E0F80183890E94980221960E5F1F4FD0
:101E0000F7E000311F0709F09FCFF89410922001EE
:101E100089E08093210180E293E0909329018093EF
:101E20002801109225011092240182E08093730012
:101E3000789480931405109218058091150560E040
:101E40000E9405038FE392E00E9428060E94AC05E1
:101E5000FDCF8091230690912406009711F00C94F9
:101E6000E20F0895991B79E004C0991F961708F0B6
:101E7000961B881F7A95C9F780950895EE0FFF1F6E
:101E8000881F8BBF0790F691E02D19940F931F9335
:101E9000CF93DF938230910510F482E090E0E091DF
:101EA0002407F091250730E020E0B0E0A0E0309773
:101EB00099F42115310509F44AC0281B390B243047
:101EC0003105D8F58A819B816115710589F1FB0186
:101ED00093838283FE0111C040815181028113816D
:101EE00048175907E0F04817590799F4109761F01F
:101EF00012960C93129713961C933296CF01DF9192
:101F0000CF911F910F9108950093240710932507F7
:101F1000F4CF2115310551F04217530738F0A901CC
:101F2000DB019A01BD01DF01F801C1CFEF01F9CF5B
:101F30009093250780932407CDCFFE01E20FF31F76
:101F4000819391932250310939832883D7CF2091EF
:101F5000220730912307232B41F420910302309173
:101F6000040230932307209322072091010230912D
:101F700002022115310541F42DB73EB7409105020B
:101F800050910602241B350BE0912207F0912307A4
:101F9000E217F307A0F42E1B3F0B2817390778F040
:101FA000AC014E5F5F4F2417350748F04E0F5F1F9F
:101FB0005093230740932207819391939FCFF0E0A2
:101FC000E0E09CCFCF93DF930097E9F0FC013297DC
:101FD00013821282A0912407B0912507ED0130E011
:101FE00020E01097A1F420813181820F931F20916E
:101FF0002207309123072817390709F061C0F093B1
:102000002307E0932207DF91CF910895EA01CE17CD
:10201000DF07E8F54A815B819E0141155105B1F763
:10202000E901FB83EA8349915991C40FD51FEC174D
:10203000FD0761F4808191810296840F951FE9016B
:1020400099838883828193819B838A83F0E0E0E097
:1020500012968D919C9113970097B9F52D913C9113
:102060001197CD010296820F931F20912207309184
:1020700023072817390739F6309751F510922507AD
:1020800010922407B0932307A0932207BCCFD383D9
:10209000C28340815181840F951FC817D90761F40D
:1020A0004E5F5F4F88819981480F591F518340834C
:1020B0008A819B81938382832115310509F0B0CFFA
:1020C000F0932507E09324079ECFFD01DC01C0CFEC
:1020D00013821282D7CF4F925F926F927F928F922C
:1020E0009F92AF92BF92CF92DF92EF92FF920F93A7
:1020F0001F93CF93DF938C01009799F4CB01DF916D
:10210000CF911F910F91FF90EF90DF90CF90BF90F4
:10211000AF909F908F907F906F905F904F900C94B6
:10212000460FFC01E60FF71F9C0122503109E21710
:10213000F30708F4AEC0D901CD91DC911197C61711
:10214000D70720F1C530D10578F0CE010497861766
:10215000970750F0C61BD70B2297C193D1936D936D
:102160007C93CF010E94E20FC801DF91CF911F91B4
:102170000F91FF90EF90DF90CF90BF90AF909F9026
:102180008F907F906F905F904F9008955B01AC1A95
:10219000BD0A4C018C0E9D1EA0912407B09125070D
:1021A000512C412CF12CE12C109731F58091220714
:1021B000909123078815990509F05CC046165706CB
:1021C00008F058C08091010290910202009741F4FA
:1021D0008DB79EB74091050250910602841B950B66
:1021E000E817F90708F055C0F0932307E09322079A
:1021F000F90171836083B8CF8D919C9111971296EC
:102200006C90129713967C901397A815B90559F501
:102210006C0142E0C40ED11CCA14DB0420F1AC01F5
:102220004A195B09DA011296159780F0628273826F
:1022300051834083D9016D937C93E114F10471F0D3
:10224000D7011396FC93EE9312978ECF22968C0FA4
:102250009D1FF90191838083F301EFCFF093250750
:10226000E093240781CF4816590608F42C017D011C
:10227000D3019ACFCB010E94460F7C01009749F011
:10228000AE01B8010E944C11C8010E94E20F870103
:102290006BCF10E000E068CFFB01DC0102C00190D1
:1022A0000D9241505040D8F70895FB01DC01019098
:1022B0000D920020E1F7089511E0CEE4D1E000E0B6
:1022C00006C0802FFE010E943E0F2196011DCF34D3
:0C22D000D10780E00807A9F7F894FFCFC1
:1022DC00FF000026078000363738391B1D1A1C00FA
:1022EC000000000202D501EC05AB01CE01BB01AC34
:1022FC0001000000003C057904BF048905F004CE00
:10230C0004E2040000000004067904EC05EB055619
:0C231C00657273696F6E206D61696E0060
:00000001FF
